{
  "contractName": "Exchange",
  "abi": [
    {
      "inputs": [
        {
          "internalType": "address",
          "name": "_feeAccount",
          "type": "address"
        },
        {
          "internalType": "uint256",
          "name": "_feePercent",
          "type": "uint256"
        }
      ],
      "stateMutability": "nonpayable",
      "type": "constructor"
    },
    {
      "anonymous": false,
      "inputs": [
        {
          "indexed": false,
          "internalType": "uint256",
          "name": "id",
          "type": "uint256"
        },
        {
          "indexed": false,
          "internalType": "address",
          "name": "user",
          "type": "address"
        },
        {
          "indexed": false,
          "internalType": "address",
          "name": "tokenGet",
          "type": "address"
        },
        {
          "indexed": false,
          "internalType": "uint256",
          "name": "amountGet",
          "type": "uint256"
        },
        {
          "indexed": false,
          "internalType": "address",
          "name": "tokenGive",
          "type": "address"
        },
        {
          "indexed": false,
          "internalType": "uint256",
          "name": "amountGive",
          "type": "uint256"
        },
        {
          "indexed": false,
          "internalType": "uint256",
          "name": "timestamp",
          "type": "uint256"
        }
      ],
      "name": "Cancel",
      "type": "event"
    },
    {
      "anonymous": false,
      "inputs": [
        {
          "indexed": false,
          "internalType": "address",
          "name": "token",
          "type": "address"
        },
        {
          "indexed": false,
          "internalType": "address",
          "name": "user",
          "type": "address"
        },
        {
          "indexed": false,
          "internalType": "uint256",
          "name": "amount",
          "type": "uint256"
        },
        {
          "indexed": false,
          "internalType": "uint256",
          "name": "balance",
          "type": "uint256"
        }
      ],
      "name": "Deposit",
      "type": "event"
    },
    {
      "anonymous": false,
      "inputs": [
        {
          "indexed": false,
          "internalType": "uint256",
          "name": "id",
          "type": "uint256"
        },
        {
          "indexed": false,
          "internalType": "address",
          "name": "user",
          "type": "address"
        },
        {
          "indexed": false,
          "internalType": "address",
          "name": "tokenGet",
          "type": "address"
        },
        {
          "indexed": false,
          "internalType": "uint256",
          "name": "amountGet",
          "type": "uint256"
        },
        {
          "indexed": false,
          "internalType": "address",
          "name": "tokenGive",
          "type": "address"
        },
        {
          "indexed": false,
          "internalType": "uint256",
          "name": "amountGive",
          "type": "uint256"
        },
        {
          "indexed": false,
          "internalType": "uint256",
          "name": "timestamp",
          "type": "uint256"
        }
      ],
      "name": "Order",
      "type": "event"
    },
    {
      "anonymous": false,
      "inputs": [
        {
          "indexed": false,
          "internalType": "address",
          "name": "token",
          "type": "address"
        },
        {
          "indexed": false,
          "internalType": "address",
          "name": "user",
          "type": "address"
        },
        {
          "indexed": false,
          "internalType": "uint256",
          "name": "amount",
          "type": "uint256"
        },
        {
          "indexed": false,
          "internalType": "uint256",
          "name": "balance",
          "type": "uint256"
        }
      ],
      "name": "Withdraw",
      "type": "event"
    },
    {
      "inputs": [],
      "name": "feeAccount",
      "outputs": [
        {
          "internalType": "address",
          "name": "",
          "type": "address"
        }
      ],
      "stateMutability": "view",
      "type": "function"
    },
    {
      "inputs": [],
      "name": "feePercent",
      "outputs": [
        {
          "internalType": "uint256",
          "name": "",
          "type": "uint256"
        }
      ],
      "stateMutability": "view",
      "type": "function"
    },
    {
      "inputs": [
        {
          "internalType": "uint256",
          "name": "",
          "type": "uint256"
        }
      ],
      "name": "orderCancelled",
      "outputs": [
        {
          "internalType": "bool",
          "name": "",
          "type": "bool"
        }
      ],
      "stateMutability": "view",
      "type": "function"
    },
    {
      "inputs": [],
      "name": "orderCount",
      "outputs": [
        {
          "internalType": "uint256",
          "name": "",
          "type": "uint256"
        }
      ],
      "stateMutability": "view",
      "type": "function"
    },
    {
      "inputs": [
        {
          "internalType": "uint256",
          "name": "",
          "type": "uint256"
        }
      ],
      "name": "orders",
      "outputs": [
        {
          "internalType": "uint256",
          "name": "id",
          "type": "uint256"
        },
        {
          "internalType": "address",
          "name": "user",
          "type": "address"
        },
        {
          "internalType": "address",
          "name": "tokenGet",
          "type": "address"
        },
        {
          "internalType": "uint256",
          "name": "amountGet",
          "type": "uint256"
        },
        {
          "internalType": "address",
          "name": "tokenGive",
          "type": "address"
        },
        {
          "internalType": "uint256",
          "name": "amountGive",
          "type": "uint256"
        },
        {
          "internalType": "uint256",
          "name": "timestamp",
          "type": "uint256"
        }
      ],
      "stateMutability": "view",
      "type": "function"
    },
    {
      "inputs": [
        {
          "internalType": "address",
          "name": "",
          "type": "address"
        },
        {
          "internalType": "address",
          "name": "",
          "type": "address"
        }
      ],
      "name": "tokens",
      "outputs": [
        {
          "internalType": "uint256",
          "name": "",
          "type": "uint256"
        }
      ],
      "stateMutability": "view",
      "type": "function"
    },
    {
      "inputs": [],
      "name": "fallBack",
      "outputs": [],
      "stateMutability": "payable",
      "type": "function"
    },
    {
      "inputs": [],
      "name": "depositEther",
      "outputs": [],
      "stateMutability": "payable",
      "type": "function"
    },
    {
      "inputs": [
        {
          "internalType": "address payable",
          "name": "owner",
          "type": "address"
        },
        {
          "internalType": "uint256",
          "name": "_amount",
          "type": "uint256"
        }
      ],
      "name": "withdrawEther",
      "outputs": [],
      "stateMutability": "nonpayable",
      "type": "function"
    },
    {
      "inputs": [
        {
          "internalType": "address",
          "name": "_token",
          "type": "address"
        },
        {
          "internalType": "uint256",
          "name": "_amount",
          "type": "uint256"
        }
      ],
      "name": "depositToken",
      "outputs": [],
      "stateMutability": "nonpayable",
      "type": "function"
    },
    {
      "inputs": [
        {
          "internalType": "address",
          "name": "_token",
          "type": "address"
        },
        {
          "internalType": "uint256",
          "name": "_amount",
          "type": "uint256"
        }
      ],
      "name": "withdrawToken",
      "outputs": [],
      "stateMutability": "nonpayable",
      "type": "function"
    },
    {
      "inputs": [
        {
          "internalType": "address",
          "name": "_token",
          "type": "address"
        },
        {
          "internalType": "address",
          "name": "_user",
          "type": "address"
        }
      ],
      "name": "balanceOf",
      "outputs": [
        {
          "internalType": "uint256",
          "name": "",
          "type": "uint256"
        }
      ],
      "stateMutability": "view",
      "type": "function"
    },
    {
      "inputs": [
        {
          "internalType": "address",
          "name": "_tokenGet",
          "type": "address"
        },
        {
          "internalType": "uint256",
          "name": "_amountGet",
          "type": "uint256"
        },
        {
          "internalType": "address",
          "name": "_tokenGive",
          "type": "address"
        },
        {
          "internalType": "uint256",
          "name": "_amountGive",
          "type": "uint256"
        }
      ],
      "name": "makeOrder",
      "outputs": [],
      "stateMutability": "nonpayable",
      "type": "function"
    },
    {
      "inputs": [
        {
          "internalType": "uint256",
          "name": "_id",
          "type": "uint256"
        }
      ],
      "name": "cancelOrder",
      "outputs": [],
      "stateMutability": "nonpayable",
      "type": "function"
    }
  ],
  "bytecode": "0x60806040523480156200001157600080fd5b506040516200189b3803806200189b83398181016040528101906200003791906200012b565b816000806101000a81548173ffffffffffffffffffffffffffffffffffffffff021916908373ffffffffffffffffffffffffffffffffffffffff16021790555080600181905550505062000172565b600080fd5b600073ffffffffffffffffffffffffffffffffffffffff82169050919050565b6000620000b8826200008b565b9050919050565b620000ca81620000ab565b8114620000d657600080fd5b50565b600081519050620000ea81620000bf565b92915050565b6000819050919050565b6200010581620000f0565b81146200011157600080fd5b50565b6000815190506200012581620000fa565b92915050565b6000806040838503121562000145576200014462000086565b5b60006200015585828601620000d9565b9250506020620001688582860162000114565b9150509250929050565b61171980620001826000396000f3fe6080604052600436106100dd5760003560e01c80637fd6f15c1161007f5780639e281a98116100595780639e281a9814610258578063a85c38ef14610281578063e9c18966146102c4578063f7888aec14610301576100dd565b80637fd6f15c146101fa57806398ea5fca146102255780639a5c90aa1461022f576100dd565b8063508493bc116100bb578063508493bc14610140578063514fcac71461017d578063522f6815146101a657806365e17c9d146101cf576100dd565b80632453ffa8146100e257806325a164b51461010d578063338b5dea14610117575b600080fd5b3480156100ee57600080fd5b506100f761033e565b6040516101049190611221565b60405180910390f35b610115610344565b005b34801561012357600080fd5b5061013e600480360381019061013991906112cb565b610349565b005b34801561014c57600080fd5b506101676004803603810190610162919061130b565b6105d1565b6040516101749190611221565b60405180910390f35b34801561018957600080fd5b506101a4600480360381019061019f919061134b565b6105f6565b005b3480156101b257600080fd5b506101cd60048036038101906101c891906113b6565b610740565b005b3480156101db57600080fd5b506101e46109d6565b6040516101f19190611405565b60405180910390f35b34801561020657600080fd5b5061020f6109fa565b60405161021c9190611221565b60405180910390f35b61022d610a00565b005b34801561023b57600080fd5b5061025660048036038101906102519190611420565b610bc4565b005b34801561026457600080fd5b5061027f600480360381019061027a91906112cb565b610db0565b005b34801561028d57600080fd5b506102a860048036038101906102a3919061134b565b6110bf565b6040516102bb9796959493929190611487565b60405180910390f35b3480156102d057600080fd5b506102eb60048036038101906102e6919061134b565b611161565b6040516102f89190611511565b60405180910390f35b34801561030d57600080fd5b506103286004803603810190610323919061130b565b611181565b6040516103359190611221565b60405180910390f35b60025481565b600080fd5b600073ffffffffffffffffffffffffffffffffffffffff168273ffffffffffffffffffffffffffffffffffffffff16141561038357600080fd5b8173ffffffffffffffffffffffffffffffffffffffff166323b872dd3330846040518463ffffffff1660e01b81526004016103c09392919061152c565b6020604051808303816000875af11580156103df573d6000803e3d6000fd5b505050506040513d601f19601f82011682018060405250810190610403919061158f565b61040c57600080fd5b80600360008473ffffffffffffffffffffffffffffffffffffffff1673ffffffffffffffffffffffffffffffffffffffff16815260200190815260200160002060003373ffffffffffffffffffffffffffffffffffffffff1673ffffffffffffffffffffffffffffffffffffffff1681526020019081526020016000205461049491906115eb565b600360008473ffffffffffffffffffffffffffffffffffffffff1673ffffffffffffffffffffffffffffffffffffffff16815260200190815260200160002060003373ffffffffffffffffffffffffffffffffffffffff1673ffffffffffffffffffffffffffffffffffffffff168152602001908152602001600020819055507fdcbc1c05240f31ff3ad067ef1ee35ce4997762752e3a095284754544f4c709d7823383600360008773ffffffffffffffffffffffffffffffffffffffff1673ffffffffffffffffffffffffffffffffffffffff16815260200190815260200160002060003373ffffffffffffffffffffffffffffffffffffffff1673ffffffffffffffffffffffffffffffffffffffff168152602001908152602001600020546040516105c59493929190611641565b60405180910390a15050565b6003602052816000526040600020602052806000526040600020600091509150505481565b60006004600083815260200190815260200160002090503373ffffffffffffffffffffffffffffffffffffffff168160010160009054906101000a900473ffffffffffffffffffffffffffffffffffffffff1673ffffffffffffffffffffffffffffffffffffffff161461066957600080fd5b8181600001541461067957600080fd5b60016005600084815260200190815260200160002060006101000a81548160ff0219169083151502179055507f77de1da0be5f2d3b110d05c6694e5c4ff2d9da7cd23d84353ecf78c7b5acec618160000154338360020160009054906101000a900473ffffffffffffffffffffffffffffffffffffffff1684600301548560040160009054906101000a900473ffffffffffffffffffffffffffffffffffffffff168660050154426040516107349796959493929190611487565b60405180910390a15050565b80600360008073ffffffffffffffffffffffffffffffffffffffff1673ffffffffffffffffffffffffffffffffffffffff16815260200190815260200160002060003373ffffffffffffffffffffffffffffffffffffffff1673ffffffffffffffffffffffffffffffffffffffff1681526020019081526020016000205410156107c957600080fd5b80600360008073ffffffffffffffffffffffffffffffffffffffff1673ffffffffffffffffffffffffffffffffffffffff16815260200190815260200160002060003373ffffffffffffffffffffffffffffffffffffffff1673ffffffffffffffffffffffffffffffffffffffff168152602001908152602001600020546108519190611686565b600360008073ffffffffffffffffffffffffffffffffffffffff1673ffffffffffffffffffffffffffffffffffffffff16815260200190815260200160002060003373ffffffffffffffffffffffffffffffffffffffff1673ffffffffffffffffffffffffffffffffffffffff168152602001908152602001600020819055508173ffffffffffffffffffffffffffffffffffffffff166108fc829081150290604051600060405180830381858888f19350505050158015610917573d6000803e3d6000fd5b507ff341246adaac6f497bc2a656f546ab9e182111d630394f0c57c710a59a2cb56760003383600360008073ffffffffffffffffffffffffffffffffffffffff1673ffffffffffffffffffffffffffffffffffffffff16815260200190815260200160002060003373ffffffffffffffffffffffffffffffffffffffff1673ffffffffffffffffffffffffffffffffffffffff168152602001908152602001600020546040516109ca9493929190611641565b60405180910390a15050565b60008054906101000a900473ffffffffffffffffffffffffffffffffffffffff1681565b60015481565b34600360008073ffffffffffffffffffffffffffffffffffffffff1673ffffffffffffffffffffffffffffffffffffffff16815260200190815260200160002060003373ffffffffffffffffffffffffffffffffffffffff1673ffffffffffffffffffffffffffffffffffffffff16815260200190815260200160002054610a8891906115eb565b600360008073ffffffffffffffffffffffffffffffffffffffff1673ffffffffffffffffffffffffffffffffffffffff16815260200190815260200160002060003373ffffffffffffffffffffffffffffffffffffffff1673ffffffffffffffffffffffffffffffffffffffff168152602001908152602001600020819055507fdcbc1c05240f31ff3ad067ef1ee35ce4997762752e3a095284754544f4c709d760003334600360008073ffffffffffffffffffffffffffffffffffffffff1673ffffffffffffffffffffffffffffffffffffffff16815260200190815260200160002060003373ffffffffffffffffffffffffffffffffffffffff1673ffffffffffffffffffffffffffffffffffffffff16815260200190815260200160002054604051610bba9493929190611641565b60405180910390a1565b6001600254610bd391906115eb565b6002819055506040518060e0016040528060025481526020013373ffffffffffffffffffffffffffffffffffffffff1681526020018573ffffffffffffffffffffffffffffffffffffffff1681526020018481526020018373ffffffffffffffffffffffffffffffffffffffff168152602001828152602001428152506004600060025481526020019081526020016000206000820151816000015560208201518160010160006101000a81548173ffffffffffffffffffffffffffffffffffffffff021916908373ffffffffffffffffffffffffffffffffffffffff16021790555060408201518160020160006101000a81548173ffffffffffffffffffffffffffffffffffffffff021916908373ffffffffffffffffffffffffffffffffffffffff1602179055506060820151816003015560808201518160040160006101000a81548173ffffffffffffffffffffffffffffffffffffffff021916908373ffffffffffffffffffffffffffffffffffffffff16021790555060a0820151816005015560c082015181600601559050507f9d33853d43e3607b4cc01fdc78338ff2dca6fef7db9232dae6d3eb55fbc3b109600254338686868642604051610da29796959493929190611487565b60405180910390a150505050565b600073ffffffffffffffffffffffffffffffffffffffff168273ffffffffffffffffffffffffffffffffffffffff161415610dea57600080fd5b80600360008473ffffffffffffffffffffffffffffffffffffffff1673ffffffffffffffffffffffffffffffffffffffff16815260200190815260200160002060003373ffffffffffffffffffffffffffffffffffffffff1673ffffffffffffffffffffffffffffffffffffffff168152602001908152602001600020541015610e7357600080fd5b80600360008473ffffffffffffffffffffffffffffffffffffffff1673ffffffffffffffffffffffffffffffffffffffff16815260200190815260200160002060003373ffffffffffffffffffffffffffffffffffffffff1673ffffffffffffffffffffffffffffffffffffffff16815260200190815260200160002054610efb9190611686565b600360008473ffffffffffffffffffffffffffffffffffffffff1673ffffffffffffffffffffffffffffffffffffffff16815260200190815260200160002060003373ffffffffffffffffffffffffffffffffffffffff1673ffffffffffffffffffffffffffffffffffffffff168152602001908152602001600020819055508173ffffffffffffffffffffffffffffffffffffffff1663a9059cbb33836040518363ffffffff1660e01b8152600401610fb69291906116ba565b6020604051808303816000875af1158015610fd5573d6000803e3d6000fd5b505050506040513d601f19601f82011682018060405250810190610ff9919061158f565b61100257600080fd5b7ff341246adaac6f497bc2a656f546ab9e182111d630394f0c57c710a59a2cb567823383600360008773ffffffffffffffffffffffffffffffffffffffff1673ffffffffffffffffffffffffffffffffffffffff16815260200190815260200160002060003373ffffffffffffffffffffffffffffffffffffffff1673ffffffffffffffffffffffffffffffffffffffff168152602001908152602001600020546040516110b39493929190611641565b60405180910390a15050565b60046020528060005260406000206000915090508060000154908060010160009054906101000a900473ffffffffffffffffffffffffffffffffffffffff16908060020160009054906101000a900473ffffffffffffffffffffffffffffffffffffffff16908060030154908060040160009054906101000a900473ffffffffffffffffffffffffffffffffffffffff16908060050154908060060154905087565b60056020528060005260406000206000915054906101000a900460ff1681565b6000600360008473ffffffffffffffffffffffffffffffffffffffff1673ffffffffffffffffffffffffffffffffffffffff16815260200190815260200160002060008373ffffffffffffffffffffffffffffffffffffffff1673ffffffffffffffffffffffffffffffffffffffff16815260200190815260200160002054905092915050565b6000819050919050565b61121b81611208565b82525050565b60006020820190506112366000830184611212565b92915050565b600080fd5b600073ffffffffffffffffffffffffffffffffffffffff82169050919050565b600061126c82611241565b9050919050565b61127c81611261565b811461128757600080fd5b50565b60008135905061129981611273565b92915050565b6112a881611208565b81146112b357600080fd5b50565b6000813590506112c58161129f565b92915050565b600080604083850312156112e2576112e161123c565b5b60006112f08582860161128a565b9250506020611301858286016112b6565b9150509250929050565b600080604083850312156113225761132161123c565b5b60006113308582860161128a565b92505060206113418582860161128a565b9150509250929050565b6000602082840312156113615761136061123c565b5b600061136f848285016112b6565b91505092915050565b600061138382611241565b9050919050565b61139381611378565b811461139e57600080fd5b50565b6000813590506113b08161138a565b92915050565b600080604083850312156113cd576113cc61123c565b5b60006113db858286016113a1565b92505060206113ec858286016112b6565b9150509250929050565b6113ff81611261565b82525050565b600060208201905061141a60008301846113f6565b92915050565b6000806000806080858703121561143a5761143961123c565b5b60006114488782880161128a565b9450506020611459878288016112b6565b935050604061146a8782880161128a565b925050606061147b878288016112b6565b91505092959194509250565b600060e08201905061149c600083018a611212565b6114a960208301896113f6565b6114b660408301886113f6565b6114c36060830187611212565b6114d060808301866113f6565b6114dd60a0830185611212565b6114ea60c0830184611212565b98975050505050505050565b60008115159050919050565b61150b816114f6565b82525050565b60006020820190506115266000830184611502565b92915050565b600060608201905061154160008301866113f6565b61154e60208301856113f6565b61155b6040830184611212565b949350505050565b61156c816114f6565b811461157757600080fd5b50565b60008151905061158981611563565b92915050565b6000602082840312156115a5576115a461123c565b5b60006115b38482850161157a565b91505092915050565b7f4e487b7100000000000000000000000000000000000000000000000000000000600052601160045260246000fd5b60006115f682611208565b915061160183611208565b9250827fffffffffffffffffffffffffffffffffffffffffffffffffffffffffffffffff03821115611636576116356115bc565b5b828201905092915050565b600060808201905061165660008301876113f6565b61166360208301866113f6565b6116706040830185611212565b61167d6060830184611212565b95945050505050565b600061169182611208565b915061169c83611208565b9250828210156116af576116ae6115bc565b5b828203905092915050565b60006040820190506116cf60008301856113f6565b6116dc6020830184611212565b939250505056fea2646970667358221220cb1cbd485257f4e2bec57d2c9853282f031ddd627ac5156f0d256a590c6fa02164736f6c634300080c0033",
  "immutableReferences": {},
  "source": "// SPDX-License-Identifier: MIT\npragma solidity ^0.8.12;\n\n//deposit and withdraw funds\n//manage orders - make or cancel\n//handle trades - charge fees\n\n/**list\n[x]set the fee\n[x]deposit ether\n[x]withdraw ether\n[x]deposit tokens\n[x]withdraw tokens\n[x]check balances\n[ ]make order\n[ ]cancel order\n[ ]fill order\n */\n\nimport \"./TokenNBRCb.sol\";\n\ncontract Exchange {\n    //variables\n    address public feeAccount;\n    uint256 public feePercent;\n    //store Ether in tokens mapping with blank address\n    address constant ETHER = address(0);\n    //order count\n    uint256 public orderCount;\n\n    mapping(address => mapping(address => uint256)) public tokens;\n    //storing order, allowing to read all the orders from mapping\n    mapping(uint256 => _Order) public orders;\n    //mapping cancelled orders\n    mapping(uint256 => bool) public orderCancelled;\n\n    //triggers\n    event Deposit(address token, address user, uint256 amount, uint256 balance);\n    event Withdraw(\n        address token,\n        address user,\n        uint256 amount,\n        uint256 balance\n    );\n\n    event Order(\n        uint256 id,\n        address user,\n        address tokenGet,\n        uint256 amountGet,\n        address tokenGive,\n        uint256 amountGive,\n        uint256 timestamp\n    );\n\n    event Cancel(\n        uint256 id,\n        address user,\n        address tokenGet,\n        uint256 amountGet,\n        address tokenGive,\n        uint256 amountGive,\n        uint256 timestamp\n    );\n\n    //structs\n    //composite data of order\n    //a way to store the order\n    //add the order to storage\n    struct _Order {\n        uint256 id;\n        address user;\n        // the token they want to purchase : tokenChoice?\n        address tokenGet;\n        uint256 amountGet;\n        //the token they want to use in the trade\n        address tokenGive;\n        uint256 amountGive;\n        uint256 timestamp;\n    }\n\n    constructor(address _feeAccount, uint256 _feePercent) {\n        feeAccount = _feeAccount;\n        feePercent = _feePercent;\n    }\n\n    function fallBack() external payable {\n        revert();\n    }\n\n    function depositEther() public payable {\n        tokens[ETHER][msg.sender] = tokens[ETHER][msg.sender] + msg.value; //passing + update\n        emit Deposit(ETHER, msg.sender, msg.value, tokens[ETHER][msg.sender]);\n    }\n\n    function withdrawEther(address payable owner, uint256 _amount) public {\n        require(tokens[ETHER][msg.sender] >= _amount); //eth has to be more or equal to the amount\n        tokens[ETHER][msg.sender] = tokens[ETHER][msg.sender] - _amount;\n        owner.transfer(_amount);\n        emit Withdraw(ETHER, msg.sender, _amount, tokens[ETHER][msg.sender]);\n    }\n\n    function depositToken(address _token, uint256 _amount) public {\n        //dont allow ether deposit\n        require(_token != ETHER);\n        //which token?\n        require(\n            TokenNBRCb(_token).transferFrom(msg.sender, address(this), _amount) // transfering TO the sm\n        );\n        tokens[_token][msg.sender] = tokens[_token][msg.sender] + _amount; //passing + update\n        emit Deposit(_token, msg.sender, _amount, tokens[_token][msg.sender]);\n        //how much?\n        //manage deposit\n        //send tokens to this contract\n    }\n\n    function withdrawToken(address _token, uint256 _amount) public {\n        require(_token != ETHER);\n        require(tokens[_token][msg.sender] >= _amount); //amount check\n        tokens[_token][msg.sender] = tokens[_token][msg.sender] - _amount;\n        require(TokenNBRCb(_token).transfer(msg.sender, _amount)); // transfering FROM the sm back to the user\n        emit Withdraw(_token, msg.sender, _amount, tokens[_token][msg.sender]); //balance = tokens[_token][msg.sender]\n    }\n\n    function balanceOf(\n        address _token,\n        address _user\n    ) public view returns (uint256) {\n        return tokens[_token][_user];\n    }\n\n    function makeOrder(\n        address _tokenGet,\n        uint256 _amountGet,\n        address _tokenGive,\n        uint256 _amountGive\n    ) public {\n        orderCount = orderCount + 1;\n        orders[orderCount] = _Order(\n            orderCount,\n            msg.sender,\n            _tokenGet,\n            _amountGet,\n            _tokenGive,\n            _amountGive,\n            block.timestamp\n        );\n        emit Order(\n            orderCount,\n            msg.sender,\n            _tokenGet,\n            _amountGet,\n            _tokenGive,\n            _amountGive,\n            block.timestamp\n        );\n    }\n\n    function cancelOrder(uint256 _id) public {\n        //fetching order from the mapping, _order is variable,assigning the storing in it\n        _Order storage _order = orders[_id];\n        require(address(_order.user) == msg.sender);\n        // only valid orders that exist\n        require(_order.id == _id);\n        orderCancelled[_id] = true;\n        emit Cancel(\n            _order.id,\n            msg.sender,\n            _order.tokenGet,\n            _order.amountGet,\n            _order.tokenGive,\n            _order.amountGive,\n            block.timestamp\n        );\n    }\n}\n",
  "sourcePath": "/Users/mariaso/Portfolio/blockchain-exchange-project/blockchain-exchange/src/contracts/Exchange.sol",
  "compiler": {
    "name": "solc",
    "version": "0.8.12+commit.f00d7308.Emscripten.clang"
  },
  "schemaVersion": "3.4.6",
  "updatedAt": "2024-03-05T21:49:51.873Z",
  "devdoc": {
    "kind": "dev",
    "methods": {},
    "version": 1
  },
  "userdoc": {
    "kind": "user",
    "methods": {},
    "version": 1
  }
}