{
  "contractName": "Exchange",
  "abi": [
    {
      "inputs": [
        {
          "internalType": "address",
          "name": "_feeAccount",
          "type": "address"
        },
        {
          "internalType": "uint256",
          "name": "_feePercent",
          "type": "uint256"
        }
      ],
      "stateMutability": "nonpayable",
      "type": "constructor"
    },
    {
      "anonymous": false,
      "inputs": [
        {
          "indexed": false,
          "internalType": "address",
          "name": "token",
          "type": "address"
        },
        {
          "indexed": false,
          "internalType": "address",
          "name": "user",
          "type": "address"
        },
        {
          "indexed": false,
          "internalType": "uint256",
          "name": "amount",
          "type": "uint256"
        },
        {
          "indexed": false,
          "internalType": "uint256",
          "name": "balance",
          "type": "uint256"
        }
      ],
      "name": "Deposit",
      "type": "event"
    },
    {
      "anonymous": false,
      "inputs": [
        {
          "indexed": false,
          "internalType": "address",
          "name": "token",
          "type": "address"
        },
        {
          "indexed": false,
          "internalType": "address",
          "name": "user",
          "type": "address"
        },
        {
          "indexed": false,
          "internalType": "uint256",
          "name": "amount",
          "type": "uint256"
        },
        {
          "indexed": false,
          "internalType": "uint256",
          "name": "balance",
          "type": "uint256"
        }
      ],
      "name": "Withdraw",
      "type": "event"
    },
    {
      "inputs": [],
      "name": "feeAccount",
      "outputs": [
        {
          "internalType": "address",
          "name": "",
          "type": "address"
        }
      ],
      "stateMutability": "view",
      "type": "function"
    },
    {
      "inputs": [],
      "name": "feePercent",
      "outputs": [
        {
          "internalType": "uint256",
          "name": "",
          "type": "uint256"
        }
      ],
      "stateMutability": "view",
      "type": "function"
    },
    {
      "inputs": [
        {
          "internalType": "address",
          "name": "",
          "type": "address"
        },
        {
          "internalType": "address",
          "name": "",
          "type": "address"
        }
      ],
      "name": "tokens",
      "outputs": [
        {
          "internalType": "uint256",
          "name": "",
          "type": "uint256"
        }
      ],
      "stateMutability": "view",
      "type": "function"
    },
    {
      "inputs": [],
      "name": "fallBack",
      "outputs": [],
      "stateMutability": "payable",
      "type": "function"
    },
    {
      "inputs": [],
      "name": "depositEther",
      "outputs": [],
      "stateMutability": "payable",
      "type": "function"
    },
    {
      "inputs": [
        {
          "internalType": "address payable",
          "name": "owner",
          "type": "address"
        },
        {
          "internalType": "uint256",
          "name": "_amount",
          "type": "uint256"
        }
      ],
      "name": "withdrawEther",
      "outputs": [],
      "stateMutability": "nonpayable",
      "type": "function"
    },
    {
      "inputs": [
        {
          "internalType": "address",
          "name": "_token",
          "type": "address"
        },
        {
          "internalType": "uint256",
          "name": "_amount",
          "type": "uint256"
        }
      ],
      "name": "depositToken",
      "outputs": [],
      "stateMutability": "nonpayable",
      "type": "function"
    },
    {
      "inputs": [
        {
          "internalType": "address",
          "name": "_token",
          "type": "address"
        },
        {
          "internalType": "uint256",
          "name": "_amount",
          "type": "uint256"
        }
      ],
      "name": "withdrawToken",
      "outputs": [],
      "stateMutability": "nonpayable",
      "type": "function"
    },
    {
      "inputs": [
        {
          "internalType": "address",
          "name": "_token",
          "type": "address"
        },
        {
          "internalType": "address",
          "name": "_user",
          "type": "address"
        }
      ],
      "name": "balanceOf",
      "outputs": [
        {
          "internalType": "uint256",
          "name": "",
          "type": "uint256"
        }
      ],
      "stateMutability": "view",
      "type": "function"
    }
  ],
  "bytecode": "0x60806040523480156200001157600080fd5b506040516200121c3803806200121c83398181016040528101906200003791906200012b565b816000806101000a81548173ffffffffffffffffffffffffffffffffffffffff021916908373ffffffffffffffffffffffffffffffffffffffff16021790555080600181905550505062000172565b600080fd5b600073ffffffffffffffffffffffffffffffffffffffff82169050919050565b6000620000b8826200008b565b9050919050565b620000ca81620000ab565b8114620000d657600080fd5b50565b600081519050620000ea81620000bf565b92915050565b6000819050919050565b6200010581620000f0565b81146200011157600080fd5b50565b6000815190506200012581620000fa565b92915050565b6000806040838503121562000145576200014462000086565b5b60006200015585828601620000d9565b9250506020620001688582860162000114565b9150509250929050565b61109a80620001826000396000f3fe6080604052600436106100865760003560e01c806365e17c9d1161005957806365e17c9d146101245780637fd6f15c1461014f57806398ea5fca1461017a5780639e281a9814610184578063f7888aec146101ad57610086565b806325a164b51461008b578063338b5dea14610095578063508493bc146100be578063522f6815146100fb575b600080fd5b6100936101ea565b005b3480156100a157600080fd5b506100bc60048036038101906100b79190610d4f565b6101ef565b005b3480156100ca57600080fd5b506100e560048036038101906100e09190610d8f565b610477565b6040516100f29190610dde565b60405180910390f35b34801561010757600080fd5b50610122600480360381019061011d9190610e37565b61049c565b005b34801561013057600080fd5b50610139610732565b6040516101469190610e86565b60405180910390f35b34801561015b57600080fd5b50610164610756565b6040516101719190610dde565b60405180910390f35b61018261075c565b005b34801561019057600080fd5b506101ab60048036038101906101a69190610d4f565b610920565b005b3480156101b957600080fd5b506101d460048036038101906101cf9190610d8f565b610c2f565b6040516101e19190610dde565b60405180910390f35b600080fd5b600073ffffffffffffffffffffffffffffffffffffffff168273ffffffffffffffffffffffffffffffffffffffff16141561022957600080fd5b8173ffffffffffffffffffffffffffffffffffffffff166323b872dd3330846040518463ffffffff1660e01b815260040161026693929190610ea1565b6020604051808303816000875af1158015610285573d6000803e3d6000fd5b505050506040513d601f19601f820116820180604052508101906102a99190610f10565b6102b257600080fd5b80600260008473ffffffffffffffffffffffffffffffffffffffff1673ffffffffffffffffffffffffffffffffffffffff16815260200190815260200160002060003373ffffffffffffffffffffffffffffffffffffffff1673ffffffffffffffffffffffffffffffffffffffff1681526020019081526020016000205461033a9190610f6c565b600260008473ffffffffffffffffffffffffffffffffffffffff1673ffffffffffffffffffffffffffffffffffffffff16815260200190815260200160002060003373ffffffffffffffffffffffffffffffffffffffff1673ffffffffffffffffffffffffffffffffffffffff168152602001908152602001600020819055507fdcbc1c05240f31ff3ad067ef1ee35ce4997762752e3a095284754544f4c709d7823383600260008773ffffffffffffffffffffffffffffffffffffffff1673ffffffffffffffffffffffffffffffffffffffff16815260200190815260200160002060003373ffffffffffffffffffffffffffffffffffffffff1673ffffffffffffffffffffffffffffffffffffffff1681526020019081526020016000205460405161046b9493929190610fc2565b60405180910390a15050565b6002602052816000526040600020602052806000526040600020600091509150505481565b80600260008073ffffffffffffffffffffffffffffffffffffffff1673ffffffffffffffffffffffffffffffffffffffff16815260200190815260200160002060003373ffffffffffffffffffffffffffffffffffffffff1673ffffffffffffffffffffffffffffffffffffffff16815260200190815260200160002054101561052557600080fd5b80600260008073ffffffffffffffffffffffffffffffffffffffff1673ffffffffffffffffffffffffffffffffffffffff16815260200190815260200160002060003373ffffffffffffffffffffffffffffffffffffffff1673ffffffffffffffffffffffffffffffffffffffff168152602001908152602001600020546105ad9190611007565b600260008073ffffffffffffffffffffffffffffffffffffffff1673ffffffffffffffffffffffffffffffffffffffff16815260200190815260200160002060003373ffffffffffffffffffffffffffffffffffffffff1673ffffffffffffffffffffffffffffffffffffffff168152602001908152602001600020819055508173ffffffffffffffffffffffffffffffffffffffff166108fc829081150290604051600060405180830381858888f19350505050158015610673573d6000803e3d6000fd5b507ff341246adaac6f497bc2a656f546ab9e182111d630394f0c57c710a59a2cb56760003383600260008073ffffffffffffffffffffffffffffffffffffffff1673ffffffffffffffffffffffffffffffffffffffff16815260200190815260200160002060003373ffffffffffffffffffffffffffffffffffffffff1673ffffffffffffffffffffffffffffffffffffffff168152602001908152602001600020546040516107269493929190610fc2565b60405180910390a15050565b60008054906101000a900473ffffffffffffffffffffffffffffffffffffffff1681565b60015481565b34600260008073ffffffffffffffffffffffffffffffffffffffff1673ffffffffffffffffffffffffffffffffffffffff16815260200190815260200160002060003373ffffffffffffffffffffffffffffffffffffffff1673ffffffffffffffffffffffffffffffffffffffff168152602001908152602001600020546107e49190610f6c565b600260008073ffffffffffffffffffffffffffffffffffffffff1673ffffffffffffffffffffffffffffffffffffffff16815260200190815260200160002060003373ffffffffffffffffffffffffffffffffffffffff1673ffffffffffffffffffffffffffffffffffffffff168152602001908152602001600020819055507fdcbc1c05240f31ff3ad067ef1ee35ce4997762752e3a095284754544f4c709d760003334600260008073ffffffffffffffffffffffffffffffffffffffff1673ffffffffffffffffffffffffffffffffffffffff16815260200190815260200160002060003373ffffffffffffffffffffffffffffffffffffffff1673ffffffffffffffffffffffffffffffffffffffff168152602001908152602001600020546040516109169493929190610fc2565b60405180910390a1565b600073ffffffffffffffffffffffffffffffffffffffff168273ffffffffffffffffffffffffffffffffffffffff16141561095a57600080fd5b80600260008473ffffffffffffffffffffffffffffffffffffffff1673ffffffffffffffffffffffffffffffffffffffff16815260200190815260200160002060003373ffffffffffffffffffffffffffffffffffffffff1673ffffffffffffffffffffffffffffffffffffffff1681526020019081526020016000205410156109e357600080fd5b80600260008473ffffffffffffffffffffffffffffffffffffffff1673ffffffffffffffffffffffffffffffffffffffff16815260200190815260200160002060003373ffffffffffffffffffffffffffffffffffffffff1673ffffffffffffffffffffffffffffffffffffffff16815260200190815260200160002054610a6b9190611007565b600260008473ffffffffffffffffffffffffffffffffffffffff1673ffffffffffffffffffffffffffffffffffffffff16815260200190815260200160002060003373ffffffffffffffffffffffffffffffffffffffff1673ffffffffffffffffffffffffffffffffffffffff168152602001908152602001600020819055508173ffffffffffffffffffffffffffffffffffffffff1663a9059cbb33836040518363ffffffff1660e01b8152600401610b2692919061103b565b6020604051808303816000875af1158015610b45573d6000803e3d6000fd5b505050506040513d601f19601f82011682018060405250810190610b699190610f10565b610b7257600080fd5b7ff341246adaac6f497bc2a656f546ab9e182111d630394f0c57c710a59a2cb567823383600260008773ffffffffffffffffffffffffffffffffffffffff1673ffffffffffffffffffffffffffffffffffffffff16815260200190815260200160002060003373ffffffffffffffffffffffffffffffffffffffff1673ffffffffffffffffffffffffffffffffffffffff16815260200190815260200160002054604051610c239493929190610fc2565b60405180910390a15050565b6000600260008473ffffffffffffffffffffffffffffffffffffffff1673ffffffffffffffffffffffffffffffffffffffff16815260200190815260200160002060008373ffffffffffffffffffffffffffffffffffffffff1673ffffffffffffffffffffffffffffffffffffffff16815260200190815260200160002054905092915050565b600080fd5b600073ffffffffffffffffffffffffffffffffffffffff82169050919050565b6000610ce682610cbb565b9050919050565b610cf681610cdb565b8114610d0157600080fd5b50565b600081359050610d1381610ced565b92915050565b6000819050919050565b610d2c81610d19565b8114610d3757600080fd5b50565b600081359050610d4981610d23565b92915050565b60008060408385031215610d6657610d65610cb6565b5b6000610d7485828601610d04565b9250506020610d8585828601610d3a565b9150509250929050565b60008060408385031215610da657610da5610cb6565b5b6000610db485828601610d04565b9250506020610dc585828601610d04565b9150509250929050565b610dd881610d19565b82525050565b6000602082019050610df36000830184610dcf565b92915050565b6000610e0482610cbb565b9050919050565b610e1481610df9565b8114610e1f57600080fd5b50565b600081359050610e3181610e0b565b92915050565b60008060408385031215610e4e57610e4d610cb6565b5b6000610e5c85828601610e22565b9250506020610e6d85828601610d3a565b9150509250929050565b610e8081610cdb565b82525050565b6000602082019050610e9b6000830184610e77565b92915050565b6000606082019050610eb66000830186610e77565b610ec36020830185610e77565b610ed06040830184610dcf565b949350505050565b60008115159050919050565b610eed81610ed8565b8114610ef857600080fd5b50565b600081519050610f0a81610ee4565b92915050565b600060208284031215610f2657610f25610cb6565b5b6000610f3484828501610efb565b91505092915050565b7f4e487b7100000000000000000000000000000000000000000000000000000000600052601160045260246000fd5b6000610f7782610d19565b9150610f8283610d19565b9250827fffffffffffffffffffffffffffffffffffffffffffffffffffffffffffffffff03821115610fb757610fb6610f3d565b5b828201905092915050565b6000608082019050610fd76000830187610e77565b610fe46020830186610e77565b610ff16040830185610dcf565b610ffe6060830184610dcf565b95945050505050565b600061101282610d19565b915061101d83610d19565b9250828210156110305761102f610f3d565b5b828203905092915050565b60006040820190506110506000830185610e77565b61105d6020830184610dcf565b939250505056fea26469706673582212207f4604b051c177e49cb1abb7b654fdf5b8d80d7e471d6e012f51a9a61a000e8964736f6c634300080c0033",
  "immutableReferences": {},
  "source": "// SPDX-License-Identifier: MIT\npragma solidity ^0.8.12;\n\n//deposit and withdraw funds\n//manage orders - make or cancel\n//handle trades - charge fees\n\n/**list\n[x]set the fee\n[ ]deposit ether\n[ ]withdraw ether\n[ ]deposit tokens\n[ ]withdraw tokens\n[ ]check balances\n[ ]make order\n[ ]cancel order\n[ ]fill order\n */\n\nimport \"./TokenNBRCb.sol\";\n\ncontract Exchange {\n    //variables\n    address public feeAccount; // the account that receives exchange fees\n    uint256 public feePercent;\n    address constant ETHER = address(0); //store Ether in tokens mapping with blank address\n    //address public owner = msg.sender;\n\n    mapping(address => mapping(address => uint256)) public tokens; // key,value\n\n    event Deposit(address token, address user, uint256 amount, uint256 balance);\n    event Withdraw(address token, address user, uint amount, uint balance);\n\n    constructor(address _feeAccount, uint256 _feePercent) {\n        feeAccount = _feeAccount;\n        feePercent = _feePercent;\n    }\n\n    function fallBack() external payable {\n        revert();\n    }\n\n    function depositEther() public payable {\n        tokens[ETHER][msg.sender] = tokens[ETHER][msg.sender] + msg.value; //passing + update\n        emit Deposit(ETHER, msg.sender, msg.value, tokens[ETHER][msg.sender]);\n    }\n\n    function withdrawEther(address payable owner, uint _amount) public {\n        require(tokens[ETHER][msg.sender] >= _amount); //eth has to be more or equal to the amount\n        tokens[ETHER][msg.sender] = tokens[ETHER][msg.sender] - _amount;\n        owner.transfer(_amount);\n        emit Withdraw(ETHER, msg.sender, _amount, tokens[ETHER][msg.sender]);\n    }\n\n    function depositToken(address _token, uint _amount) public {\n        //dont allow ether deposit\n        require(_token != ETHER);\n        //which token?\n        require(\n            TokenNBRCb(_token).transferFrom(msg.sender, address(this), _amount) // transfering TO the sm\n        );\n        tokens[_token][msg.sender] = tokens[_token][msg.sender] + _amount; //passing + update\n        emit Deposit(_token, msg.sender, _amount, tokens[_token][msg.sender]);\n        //how much?\n        //manage deposit\n        //send tokens to this contract\n    }\n\n    function withdrawToken(address _token, uint _amount) public {\n        require(_token != ETHER);\n        require(tokens[_token][msg.sender] >= _amount); //amount check\n        tokens[_token][msg.sender] = tokens[_token][msg.sender] - _amount;\n        require(TokenNBRCb(_token).transfer(msg.sender, _amount)); // transfering FROM the sm back to the user\n        emit Withdraw(_token, msg.sender, _amount, tokens[_token][msg.sender]); //balance = tokens[_token][msg.sender]\n    }\n\n    function balanceOf(\n        address _token,\n        address _user\n    ) public view returns (uint256) {\n        return tokens[_token][_user];\n    }\n}\n",
  "sourcePath": "/Users/mariaso/Portfolio/blockchain-exchange-project/blockchain-exchange/src/contracts/Exchange.sol",
  "compiler": {
    "name": "solc",
    "version": "0.8.12+commit.f00d7308.Emscripten.clang"
  },
  "schemaVersion": "3.4.6",
  "updatedAt": "2023-05-19T13:06:27.873Z",
  "devdoc": {
    "kind": "dev",
    "methods": {},
    "version": 1
  },
  "userdoc": {
    "kind": "user",
    "methods": {},
    "version": 1
  }
}